{
  "_format": "hh-sol-artifact-1",
  "contractName": "AssetTransferContract",
  "sourceName": "contracts/AssetSafe.sol",
  "abi": [
    {
      "inputs": [],
      "stateMutability": "nonpayable",
      "type": "constructor"
    },
    {
      "inputs": [
        {
          "internalType": "address",
          "name": "owner",
          "type": "address"
        }
      ],
      "name": "OwnableInvalidOwner",
      "type": "error"
    },
    {
      "inputs": [
        {
          "internalType": "address",
          "name": "account",
          "type": "address"
        }
      ],
      "name": "OwnableUnauthorizedAccount",
      "type": "error"
    },
    {
      "anonymous": false,
      "inputs": [
        {
          "indexed": true,
          "internalType": "address",
          "name": "previousOwner",
          "type": "address"
        },
        {
          "indexed": true,
          "internalType": "address",
          "name": "newOwner",
          "type": "address"
        }
      ],
      "name": "OwnershipTransferred",
      "type": "event"
    },
    {
      "anonymous": false,
      "inputs": [
        {
          "indexed": true,
          "internalType": "address",
          "name": "sender",
          "type": "address"
        },
        {
          "indexed": true,
          "internalType": "address",
          "name": "tokenAddress",
          "type": "address"
        },
        {
          "indexed": false,
          "internalType": "uint256",
          "name": "amount",
          "type": "uint256"
        }
      ],
      "name": "ReceivedERC20",
      "type": "event"
    },
    {
      "anonymous": false,
      "inputs": [
        {
          "indexed": true,
          "internalType": "address",
          "name": "sender",
          "type": "address"
        },
        {
          "indexed": false,
          "internalType": "uint256",
          "name": "amount",
          "type": "uint256"
        }
      ],
      "name": "ReceivedETH",
      "type": "event"
    },
    {
      "anonymous": false,
      "inputs": [
        {
          "indexed": true,
          "internalType": "address",
          "name": "sender",
          "type": "address"
        },
        {
          "indexed": true,
          "internalType": "address",
          "name": "nftAddress",
          "type": "address"
        },
        {
          "indexed": false,
          "internalType": "uint256",
          "name": "tokenId",
          "type": "uint256"
        }
      ],
      "name": "ReceivedNFT",
      "type": "event"
    },
    {
      "inputs": [
        {
          "internalType": "address",
          "name": "",
          "type": "address"
        }
      ],
      "name": "erc20Balances",
      "outputs": [
        {
          "internalType": "uint256",
          "name": "",
          "type": "uint256"
        }
      ],
      "stateMutability": "view",
      "type": "function"
    },
    {
      "inputs": [
        {
          "internalType": "uint256",
          "name": "",
          "type": "uint256"
        }
      ],
      "name": "erc20TokenList",
      "outputs": [
        {
          "internalType": "address",
          "name": "",
          "type": "address"
        }
      ],
      "stateMutability": "view",
      "type": "function"
    },
    {
      "inputs": [],
      "name": "ethBalance",
      "outputs": [
        {
          "internalType": "uint256",
          "name": "",
          "type": "uint256"
        }
      ],
      "stateMutability": "view",
      "type": "function"
    },
    {
      "inputs": [],
      "name": "listAssets",
      "outputs": [
        {
          "internalType": "uint256",
          "name": "contractEthBalance",
          "type": "uint256"
        },
        {
          "internalType": "address[]",
          "name": "erc20TokenAddresses",
          "type": "address[]"
        },
        {
          "internalType": "uint256[]",
          "name": "erc20BalancesArray",
          "type": "uint256[]"
        },
        {
          "internalType": "address[]",
          "name": "nftContractAddresses",
          "type": "address[]"
        },
        {
          "internalType": "uint256[][]",
          "name": "nftTokensArray",
          "type": "uint256[][]"
        }
      ],
      "stateMutability": "view",
      "type": "function"
    },
    {
      "inputs": [
        {
          "internalType": "uint256",
          "name": "",
          "type": "uint256"
        }
      ],
      "name": "nftAddressList",
      "outputs": [
        {
          "internalType": "address",
          "name": "",
          "type": "address"
        }
      ],
      "stateMutability": "view",
      "type": "function"
    },
    {
      "inputs": [
        {
          "internalType": "address",
          "name": "",
          "type": "address"
        },
        {
          "internalType": "uint256",
          "name": "",
          "type": "uint256"
        }
      ],
      "name": "nftTokens",
      "outputs": [
        {
          "internalType": "uint256",
          "name": "",
          "type": "uint256"
        }
      ],
      "stateMutability": "view",
      "type": "function"
    },
    {
      "inputs": [],
      "name": "owner",
      "outputs": [
        {
          "internalType": "address",
          "name": "",
          "type": "address"
        }
      ],
      "stateMutability": "view",
      "type": "function"
    },
    {
      "inputs": [],
      "name": "renounceOwnership",
      "outputs": [],
      "stateMutability": "nonpayable",
      "type": "function"
    },
    {
      "inputs": [
        {
          "internalType": "address[]",
          "name": "erc20Addresses",
          "type": "address[]"
        },
        {
          "internalType": "address[]",
          "name": "nftAddresses",
          "type": "address[]"
        },
        {
          "internalType": "uint256[][]",
          "name": "nftTokenIds",
          "type": "uint256[][]"
        }
      ],
      "name": "transferAllAssetsOnce",
      "outputs": [],
      "stateMutability": "payable",
      "type": "function"
    },
    {
      "inputs": [
        {
          "internalType": "address",
          "name": "newOwner",
          "type": "address"
        }
      ],
      "name": "transferOwnership",
      "outputs": [],
      "stateMutability": "nonpayable",
      "type": "function"
    },
    {
      "inputs": [
        {
          "internalType": "address",
          "name": "tokenAddress",
          "type": "address"
        },
        {
          "internalType": "uint256",
          "name": "amount",
          "type": "uint256"
        }
      ],
      "name": "withdrawERC20",
      "outputs": [],
      "stateMutability": "nonpayable",
      "type": "function"
    },
    {
      "inputs": [
        {
          "internalType": "uint256",
          "name": "amount",
          "type": "uint256"
        }
      ],
      "name": "withdrawETH",
      "outputs": [],
      "stateMutability": "nonpayable",
      "type": "function"
    },
    {
      "inputs": [
        {
          "internalType": "address",
          "name": "nftAddress",
          "type": "address"
        },
        {
          "internalType": "uint256",
          "name": "tokenId",
          "type": "uint256"
        }
      ],
      "name": "withdrawNFT",
      "outputs": [],
      "stateMutability": "nonpayable",
      "type": "function"
    }
  ],
  "bytecode": "0x608060405234801561001057600080fd5b5033600073ffffffffffffffffffffffffffffffffffffffff168173ffffffffffffffffffffffffffffffffffffffff16036100845760006040517f1e4fbdf700000000000000000000000000000000000000000000000000000000815260040161007b919061019e565b60405180910390fd5b6100938161009960201b60201c565b506101b9565b60008060009054906101000a900473ffffffffffffffffffffffffffffffffffffffff169050816000806101000a81548173ffffffffffffffffffffffffffffffffffffffff021916908373ffffffffffffffffffffffffffffffffffffffff1602179055508173ffffffffffffffffffffffffffffffffffffffff168173ffffffffffffffffffffffffffffffffffffffff167f8be0079c531659141344cd1fd0a4f28419497f9722a3daafe3b4186f6b6457e060405160405180910390a35050565b600073ffffffffffffffffffffffffffffffffffffffff82169050919050565b60006101888261015d565b9050919050565b6101988161017d565b82525050565b60006020820190506101b3600083018461018f565b92915050565b6125d1806101c86000396000f3fe6080604052600436106100c25760003560e01c80638da5cb5b1161007f578063d3b3909611610059578063d3b3909614610259578063eadeb9a314610296578063f14210a6146102c5578063f2fde38b146102ee576100c2565b80638da5cb5b146101c8578063a1db9782146101f3578063ac18b5341461021c576100c2565b806321ab889d146100c7578063428c570d146101045780634e6630b0146101415780636088e93a1461016c5780636143d78814610195578063715018a6146101b1575b600080fd5b3480156100d357600080fd5b506100ee60048036038101906100e99190611b4c565b610317565b6040516100fb9190611b92565b60405180910390f35b34801561011057600080fd5b5061012b60048036038101906101269190611bd9565b61032f565b6040516101389190611b92565b60405180910390f35b34801561014d57600080fd5b50610156610360565b6040516101639190611b92565b60405180910390f35b34801561017857600080fd5b50610193600480360381019061018e9190611bd9565b610366565b005b6101af60048036038101906101aa9190611cd4565b6104df565b005b3480156101bd57600080fd5b506101c6610ce6565b005b3480156101d457600080fd5b506101dd610cfa565b6040516101ea9190611d97565b60405180910390f35b3480156101ff57600080fd5b5061021a60048036038101906102159190611bd9565b610d23565b005b34801561022857600080fd5b50610243600480360381019061023e9190611db2565b610ede565b6040516102509190611d97565b60405180910390f35b34801561026557600080fd5b50610280600480360381019061027b9190611db2565b610f1d565b60405161028d9190611d97565b60405180910390f35b3480156102a257600080fd5b506102ab610f5c565b6040516102bc95949392919061208c565b60405180910390f35b3480156102d157600080fd5b506102ec60048036038101906102e79190611db2565b6112f2565b005b3480156102fa57600080fd5b5061031560048036038101906103109190611b4c565b6113a9565b005b60026020528060005260406000206000915090505481565b6004602052816000526040600020818154811061034b57600080fd5b90600052602060002001600091509150505481565b60015481565b61036e61142f565b60008290503073ffffffffffffffffffffffffffffffffffffffff168173ffffffffffffffffffffffffffffffffffffffff16636352211e846040518263ffffffff1660e01b81526004016103c39190611b92565b602060405180830381865afa1580156103e0573d6000803e3d6000fd5b505050506040513d601f19601f820116820180604052508101906104049190612110565b73ffffffffffffffffffffffffffffffffffffffff161461045a576040517f08c379a00000000000000000000000000000000000000000000000000000000081526004016104519061219a565b60405180910390fd5b8073ffffffffffffffffffffffffffffffffffffffff166323b872dd3061047f610cfa565b856040518463ffffffff1660e01b815260040161049e939291906121ba565b600060405180830381600087803b1580156104b857600080fd5b505af11580156104cc573d6000803e3d6000fd5b505050506104da83836114b6565b505050565b60003411156105505734600160008282546104fa9190612220565b925050819055503373ffffffffffffffffffffffffffffffffffffffff167f4103257eaac983ca79a70d28f90dfc4fa16b619bb0c17ee7cab0d4034c279624346040516105479190611b92565b60405180910390a25b60005b868690508110156108e257600087878381811061057357610572612254565b5b90506020020160208101906105889190611b4c565b905060008173ffffffffffffffffffffffffffffffffffffffff166370a08231336040518263ffffffff1660e01b81526004016105c59190611d97565b602060405180830381865afa1580156105e2573d6000803e3d6000fd5b505050506040513d601f19601f820116820180604052508101906106069190612298565b905060008111156108d3578173ffffffffffffffffffffffffffffffffffffffff166323b872dd3330846040518463ffffffff1660e01b815260040161064e939291906121ba565b6020604051808303816000875af115801561066d573d6000803e3d6000fd5b505050506040513d601f19601f8201168201806040525081019061069191906122fd565b6106d0576040517f08c379a00000000000000000000000000000000000000000000000000000000081526004016106c790612376565b60405180910390fd5b6000600260008b8b878181106106e9576106e8612254565b5b90506020020160208101906106fe9190611b4c565b73ffffffffffffffffffffffffffffffffffffffff1673ffffffffffffffffffffffffffffffffffffffff16815260200190815260200160002054036107c957600389898581811061075357610752612254565b5b90506020020160208101906107689190611b4c565b9080600181540180825580915050600190039060005260206000200160009091909190916101000a81548173ffffffffffffffffffffffffffffffffffffffff021916908373ffffffffffffffffffffffffffffffffffffffff1602179055505b80600260008b8b878181106107e1576107e0612254565b5b90506020020160208101906107f69190611b4c565b73ffffffffffffffffffffffffffffffffffffffff1673ffffffffffffffffffffffffffffffffffffffff168152602001908152602001600020600082825461083f9190612220565b9250508190555088888481811061085957610858612254565b5b905060200201602081019061086e9190611b4c565b73ffffffffffffffffffffffffffffffffffffffff163373ffffffffffffffffffffffffffffffffffffffff167f60828417f1419799e99989c2523b4e489c9d34a62225df92844b238712164f69836040516108ca9190611b92565b60405180910390a35b50508080600101915050610553565b5060005b84849050811015610cdd57600085858381811061090657610905612254565b5b905060200201602081019061091b9190611b4c565b905060005b84848481811061093357610932612254565b5b905060200281019061094591906123a5565b9050811015610cce57600085858581811061096357610962612254565b5b905060200281019061097591906123a5565b8381811061098657610985612254565b5b9050602002013590503373ffffffffffffffffffffffffffffffffffffffff168373ffffffffffffffffffffffffffffffffffffffff16636352211e836040518263ffffffff1660e01b81526004016109df9190611b92565b602060405180830381865afa1580156109fc573d6000803e3d6000fd5b505050506040513d601f19601f82011682018060405250810190610a209190612110565b73ffffffffffffffffffffffffffffffffffffffff1603610cc0578273ffffffffffffffffffffffffffffffffffffffff166323b872dd3330846040518463ffffffff1660e01b8152600401610a78939291906121ba565b600060405180830381600087803b158015610a9257600080fd5b505af1158015610aa6573d6000803e3d6000fd5b505050506000600460008a8a88818110610ac357610ac2612254565b5b9050602002016020810190610ad89190611b4c565b73ffffffffffffffffffffffffffffffffffffffff1673ffffffffffffffffffffffffffffffffffffffff1681526020019081526020016000208054905003610ba6576005888886818110610b3057610b2f612254565b5b9050602002016020810190610b459190611b4c565b9080600181540180825580915050600190039060005260206000200160009091909190916101000a81548173ffffffffffffffffffffffffffffffffffffffff021916908373ffffffffffffffffffffffffffffffffffffffff1602179055505b60046000898987818110610bbd57610bbc612254565b5b9050602002016020810190610bd29190611b4c565b73ffffffffffffffffffffffffffffffffffffffff1673ffffffffffffffffffffffffffffffffffffffff168152602001908152602001600020819080600181540180825580915050600190039060005260206000200160009091909190915055878785818110610c4657610c45612254565b5b9050602002016020810190610c5b9190611b4c565b73ffffffffffffffffffffffffffffffffffffffff163373ffffffffffffffffffffffffffffffffffffffff167fb5aac7e554ebb3f6f25139848dc1c63901b9180bdb57b22648e37a64a9ee516283604051610cb79190611b92565b60405180910390a35b508080600101915050610920565b505080806001019150506108e6565b50505050505050565b610cee61142f565b610cf86000611702565b565b60008060009054906101000a900473ffffffffffffffffffffffffffffffffffffffff16905090565b610d2b61142f565b600260008373ffffffffffffffffffffffffffffffffffffffff1673ffffffffffffffffffffffffffffffffffffffff16815260200190815260200160002054811115610dad576040517f08c379a0000000000000000000000000000000000000000000000000000000008152600401610da490612454565b60405180910390fd5b8173ffffffffffffffffffffffffffffffffffffffff1663a9059cbb610dd1610cfa565b836040518363ffffffff1660e01b8152600401610def929190612474565b6020604051808303816000875af1158015610e0e573d6000803e3d6000fd5b505050506040513d601f19601f82011682018060405250810190610e3291906122fd565b5080600260008473ffffffffffffffffffffffffffffffffffffffff1673ffffffffffffffffffffffffffffffffffffffff1681526020019081526020016000206000828254610e82919061249d565b925050819055506000600260008473ffffffffffffffffffffffffffffffffffffffff1673ffffffffffffffffffffffffffffffffffffffff1681526020019081526020016000205403610eda57610ed9826117c6565b5b5050565b60038181548110610eee57600080fd5b906000526020600020016000915054906101000a900473ffffffffffffffffffffffffffffffffffffffff1681565b60058181548110610f2d57600080fd5b906000526020600020016000915054906101000a900473ffffffffffffffffffffffffffffffffffffffff1681565b6000606080606080610f6c61142f565b60015494506003805480602002602001604051908101604052809291908181526020018280548015610ff357602002820191906000526020600020905b8160009054906101000a900473ffffffffffffffffffffffffffffffffffffffff1673ffffffffffffffffffffffffffffffffffffffff1681526020019060010190808311610fa9575b5050505050935060038054905067ffffffffffffffff811115611019576110186124d1565b5b6040519080825280602002602001820160405280156110475781602001602082028036833780820191505090505b50925060005b60038054905081101561110457600260006003838154811061107257611071612254565b5b9060005260206000200160009054906101000a900473ffffffffffffffffffffffffffffffffffffffff1673ffffffffffffffffffffffffffffffffffffffff1673ffffffffffffffffffffffffffffffffffffffff168152602001908152602001600020548482815181106110eb576110ea612254565b5b602002602001018181525050808060010191505061104d565b50600580548060200260200160405190810160405280929190818152602001828054801561118757602002820191906000526020600020905b8160009054906101000a900473ffffffffffffffffffffffffffffffffffffffff1673ffffffffffffffffffffffffffffffffffffffff168152602001906001019080831161113d575b5050505050915060058054905067ffffffffffffffff8111156111ad576111ac6124d1565b5b6040519080825280602002602001820160405280156111e057816020015b60608152602001906001900390816111cb5790505b50905060005b6005805490508110156112ea57600460006005838154811061120b5761120a612254565b5b9060005260206000200160009054906101000a900473ffffffffffffffffffffffffffffffffffffffff1673ffffffffffffffffffffffffffffffffffffffff1673ffffffffffffffffffffffffffffffffffffffff1681526020019081526020016000208054806020026020016040519081016040528092919081815260200182805480156112ba57602002820191906000526020600020905b8154815260200190600101908083116112a6575b50505050508282815181106112d2576112d1612254565b5b602002602001018190525080806001019150506111e6565b509091929394565b6112fa61142f565b60015481111561133f576040517f08c379a00000000000000000000000000000000000000000000000000000000081526004016113369061254c565b60405180910390fd5b8060016000828254611351919061249d565b92505081905550611360610cfa565b73ffffffffffffffffffffffffffffffffffffffff166108fc829081150290604051600060405180830381858888f193505050501580156113a5573d6000803e3d6000fd5b5050565b6113b161142f565b600073ffffffffffffffffffffffffffffffffffffffff168173ffffffffffffffffffffffffffffffffffffffff16036114235760006040517f1e4fbdf700000000000000000000000000000000000000000000000000000000815260040161141a9190611d97565b60405180910390fd5b61142c81611702565b50565b611437611951565b73ffffffffffffffffffffffffffffffffffffffff16611455610cfa565b73ffffffffffffffffffffffffffffffffffffffff16146114b457611478611951565b6040517f118cdaa70000000000000000000000000000000000000000000000000000000081526004016114ab9190611d97565b60405180910390fd5b565b6000600460008473ffffffffffffffffffffffffffffffffffffffff1673ffffffffffffffffffffffffffffffffffffffff16815260200190815260200160002080549050905060005b818110156116fc5782600460008673ffffffffffffffffffffffffffffffffffffffff1673ffffffffffffffffffffffffffffffffffffffff168152602001908152602001600020828154811061155a57611559612254565b5b9060005260206000200154036116ef57600460008573ffffffffffffffffffffffffffffffffffffffff1673ffffffffffffffffffffffffffffffffffffffff1681526020019081526020016000206001836115b6919061249d565b815481106115c7576115c6612254565b5b9060005260206000200154600460008673ffffffffffffffffffffffffffffffffffffffff1673ffffffffffffffffffffffffffffffffffffffff168152602001908152602001600020828154811061162357611622612254565b5b9060005260206000200181905550600460008573ffffffffffffffffffffffffffffffffffffffff1673ffffffffffffffffffffffffffffffffffffffff1681526020019081526020016000208054806116805761167f61256c565b5b600190038181906000526020600020016000905590556000600460008673ffffffffffffffffffffffffffffffffffffffff1673ffffffffffffffffffffffffffffffffffffffff16815260200190815260200160002080549050036116ea576116e984611959565b5b6116fc565b8080600101915050611500565b50505050565b60008060009054906101000a900473ffffffffffffffffffffffffffffffffffffffff169050816000806101000a81548173ffffffffffffffffffffffffffffffffffffffff021916908373ffffffffffffffffffffffffffffffffffffffff1602179055508173ffffffffffffffffffffffffffffffffffffffff168173ffffffffffffffffffffffffffffffffffffffff167f8be0079c531659141344cd1fd0a4f28419497f9722a3daafe3b4186f6b6457e060405160405180910390a35050565b6000600380549050905060005b8181101561194c578273ffffffffffffffffffffffffffffffffffffffff166003828154811061180657611805612254565b5b9060005260206000200160009054906101000a900473ffffffffffffffffffffffffffffffffffffffff1673ffffffffffffffffffffffffffffffffffffffff160361193f57600360018361185b919061249d565b8154811061186c5761186b612254565b5b9060005260206000200160009054906101000a900473ffffffffffffffffffffffffffffffffffffffff16600382815481106118ab576118aa612254565b5b9060005260206000200160006101000a81548173ffffffffffffffffffffffffffffffffffffffff021916908373ffffffffffffffffffffffffffffffffffffffff16021790555060038054806119055761190461256c565b5b6001900381819060005260206000200160006101000a81549073ffffffffffffffffffffffffffffffffffffffff0219169055905561194c565b80806001019150506117d3565b505050565b600033905090565b6000600580549050905060005b81811015611adf578273ffffffffffffffffffffffffffffffffffffffff166005828154811061199957611998612254565b5b9060005260206000200160009054906101000a900473ffffffffffffffffffffffffffffffffffffffff1673ffffffffffffffffffffffffffffffffffffffff1603611ad25760056001836119ee919061249d565b815481106119ff576119fe612254565b5b9060005260206000200160009054906101000a900473ffffffffffffffffffffffffffffffffffffffff1660058281548110611a3e57611a3d612254565b5b9060005260206000200160006101000a81548173ffffffffffffffffffffffffffffffffffffffff021916908373ffffffffffffffffffffffffffffffffffffffff1602179055506005805480611a9857611a9761256c565b5b6001900381819060005260206000200160006101000a81549073ffffffffffffffffffffffffffffffffffffffff02191690559055611adf565b8080600101915050611966565b505050565b600080fd5b600080fd5b600073ffffffffffffffffffffffffffffffffffffffff82169050919050565b6000611b1982611aee565b9050919050565b611b2981611b0e565b8114611b3457600080fd5b50565b600081359050611b4681611b20565b92915050565b600060208284031215611b6257611b61611ae4565b5b6000611b7084828501611b37565b91505092915050565b6000819050919050565b611b8c81611b79565b82525050565b6000602082019050611ba76000830184611b83565b92915050565b611bb681611b79565b8114611bc157600080fd5b50565b600081359050611bd381611bad565b92915050565b60008060408385031215611bf057611bef611ae4565b5b6000611bfe85828601611b37565b9250506020611c0f85828601611bc4565b9150509250929050565b600080fd5b600080fd5b600080fd5b60008083601f840112611c3e57611c3d611c19565b5b8235905067ffffffffffffffff811115611c5b57611c5a611c1e565b5b602083019150836020820283011115611c7757611c76611c23565b5b9250929050565b60008083601f840112611c9457611c93611c19565b5b8235905067ffffffffffffffff811115611cb157611cb0611c1e565b5b602083019150836020820283011115611ccd57611ccc611c23565b5b9250929050565b60008060008060008060608789031215611cf157611cf0611ae4565b5b600087013567ffffffffffffffff811115611d0f57611d0e611ae9565b5b611d1b89828a01611c28565b9650965050602087013567ffffffffffffffff811115611d3e57611d3d611ae9565b5b611d4a89828a01611c28565b9450945050604087013567ffffffffffffffff811115611d6d57611d6c611ae9565b5b611d7989828a01611c7e565b92509250509295509295509295565b611d9181611b0e565b82525050565b6000602082019050611dac6000830184611d88565b92915050565b600060208284031215611dc857611dc7611ae4565b5b6000611dd684828501611bc4565b91505092915050565b600081519050919050565b600082825260208201905092915050565b6000819050602082019050919050565b611e1481611b0e565b82525050565b6000611e268383611e0b565b60208301905092915050565b6000602082019050919050565b6000611e4a82611ddf565b611e548185611dea565b9350611e5f83611dfb565b8060005b83811015611e90578151611e778882611e1a565b9750611e8283611e32565b925050600181019050611e63565b5085935050505092915050565b600081519050919050565b600082825260208201905092915050565b6000819050602082019050919050565b611ed281611b79565b82525050565b6000611ee48383611ec9565b60208301905092915050565b6000602082019050919050565b6000611f0882611e9d565b611f128185611ea8565b9350611f1d83611eb9565b8060005b83811015611f4e578151611f358882611ed8565b9750611f4083611ef0565b925050600181019050611f21565b5085935050505092915050565b600081519050919050565b600082825260208201905092915050565b6000819050602082019050919050565b600082825260208201905092915050565b6000611fa382611e9d565b611fad8185611f87565b9350611fb883611eb9565b8060005b83811015611fe9578151611fd08882611ed8565b9750611fdb83611ef0565b925050600181019050611fbc565b5085935050505092915050565b60006120028383611f98565b905092915050565b6000602082019050919050565b600061202282611f5b565b61202c8185611f66565b93508360208202850161203e85611f77565b8060005b8581101561207a578484038952815161205b8582611ff6565b94506120668361200a565b925060208a01995050600181019050612042565b50829750879550505050505092915050565b600060a0820190506120a16000830188611b83565b81810360208301526120b38187611e3f565b905081810360408301526120c78186611efd565b905081810360608301526120db8185611e3f565b905081810360808301526120ef8184612017565b90509695505050505050565b60008151905061210a81611b20565b92915050565b60006020828403121561212657612125611ae4565b5b6000612134848285016120fb565b91505092915050565b600082825260208201905092915050565b7f436f6e747261637420646f6573206e6f74206f776e2074686973204e46540000600082015250565b6000612184601e8361213d565b915061218f8261214e565b602082019050919050565b600060208201905081810360008301526121b381612177565b9050919050565b60006060820190506121cf6000830186611d88565b6121dc6020830185611d88565b6121e96040830184611b83565b949350505050565b7f4e487b7100000000000000000000000000000000000000000000000000000000600052601160045260246000fd5b600061222b82611b79565b915061223683611b79565b925082820190508082111561224e5761224d6121f1565b5b92915050565b7f4e487b7100000000000000000000000000000000000000000000000000000000600052603260045260246000fd5b60008151905061229281611bad565b92915050565b6000602082840312156122ae576122ad611ae4565b5b60006122bc84828501612283565b91505092915050565b60008115159050919050565b6122da816122c5565b81146122e557600080fd5b50565b6000815190506122f7816122d1565b92915050565b60006020828403121561231357612312611ae4565b5b6000612321848285016122e8565b91505092915050565b7f4552433230207472616e73666572206661696c65640000000000000000000000600082015250565b600061236060158361213d565b915061236b8261232a565b602082019050919050565b6000602082019050818103600083015261238f81612353565b9050919050565b600080fd5b600080fd5b600080fd5b600080833560016020038436030381126123c2576123c1612396565b5b80840192508235915067ffffffffffffffff8211156123e4576123e361239b565b5b602083019250602082023603831315612400576123ff6123a0565b5b509250929050565b7f496e73756666696369656e7420746f6b656e2062616c616e6365000000000000600082015250565b600061243e601a8361213d565b915061244982612408565b602082019050919050565b6000602082019050818103600083015261246d81612431565b9050919050565b60006040820190506124896000830185611d88565b6124966020830184611b83565b9392505050565b60006124a882611b79565b91506124b383611b79565b92508282039050818111156124cb576124ca6121f1565b5b92915050565b7f4e487b7100000000000000000000000000000000000000000000000000000000600052604160045260246000fd5b7f496e73756666696369656e74204554482062616c616e63650000000000000000600082015250565b600061253660188361213d565b915061254182612500565b602082019050919050565b6000602082019050818103600083015261256581612529565b9050919050565b7f4e487b7100000000000000000000000000000000000000000000000000000000600052603160045260246000fdfea2646970667358221220f81bed8c75460da84a39d7c1f102473efea14d381b2683b663e0424d6d28b60e64736f6c634300081b0033",
  "linkReferences": {},
  "deployedLinkReferences": {}
}